:020000040800F2
:10000000302400200D0200087D040008E1030008F0
:1000100079040008BD020008F30A0008000000008F
:100020000000000000000000000000004908000877
:10003000C10200080000000027080008A909000804
:1000400027020008270200082702000827020008EC
:1000500027020008270200082702000827020008DC
:1000600027020008270200082702000827020008CC
:1000700027020008270200082702000827020008BC
:1000800027020008270200082702000827020008AC
:10009000270200082702000827020008270200089C
:1000A000270200082702000827020008270200088C
:1000B000270200082702000827020008270200087C
:1000C000270200082702000827020008270200086C
:1000D000270200080D0A000827020008270200086E
:1000E000270200082702000827020008270200084C
:1000F000270200082702000827020008270200083C
:10010000270200082702000827020008270200082B
:10011000270200082702000827020008270200081B
:10012000270200082702000827020008270200080B
:1001300000F002F800F05AF80AA090E8000C82449F
:100140008344AAF10107DA4501D100F04FF8AFF27C
:10015000090EBAE80F0013F0010F18BFFB1A43F0A5
:1001600001031847600A0000800A00000A444FF0AB
:10017000000C10F8013B13F0070408BF10F8014B06
:100180001D1108BF10F8015B641E05D010F8016B4B
:10019000641E01F8016BF9D113F0080F1EBF10F8AF
:1001A000014BAD1C0C1B09D16D1E58BF01F801CBD2
:1001B000FAD505E014F8016B01F8016B6D1EF9D555
:1001C0009142D6D37047000000230024002500266A
:1001D000103A28BF78C1FBD8520728BF30C148BFAA
:1001E0000B6070471FB51FBD10B510BD00F033F890
:1001F0001146FFF7F7FF00F0C9FC00F051F803B417
:10020000FFF7F2FF03BC00F076FC000009488047CE
:1002100009480047FEE7FEE7FEE7FEE7FEE7FEE7E8
:10022000FEE7FEE7FEE7FEE704480549054A064B00
:1002300070470000AD09000831010008301E0020A1
:1002400030240020302000203020002070477047EC
:10025000704770477047754600F02CF8AE460500B1
:100260006946534620F00700854618B020B5FFF7D1
:10027000DBFFBDE820404FF000064FF000074FF0D5
:1002800000084FF0000B21F00701AC46ACE8C009B4
:10029000ACE8C009ACE8C009ACE8C0098D467047BD
:1002A00010B50446AFF300802046BDE81040FFF7CC
:1002B000A6BF000000487047D01D002000BFFEE729
:1002C00070472DE9F041024600250026002000235A
:1002D0000024002791F803C00CF00F0591F803C02B
:1002E0000CF0100CBCF1000F03D091F802C04CEAE6
:1002F000050591F800C0BCF1000F31D01468002052
:100300002BE04FF0010C0CFA00F3B1F800C00CEA3E
:1003100003069E4220D183004FF00F0C0CFA03F726
:10032000BC4305FA03FC4CEA040491F803C0BCF199
:10033000280F06D14FF0010C0CFA00FCC2F814C0D3
:100340000AE091F803C0BCF1480F05D14FF0010C51
:100350000CFA00FCC2F810C0401C0828D1D314606D
:10036000B1F800C0BCF1FF0F34DD546800202EE06E
:1003700000F1080C4FF0010808FA0CF3B1F800C0C6
:100380000CEA03069E4221D183004FF00F0C0CFAB9
:1003900003F7BC4305FA03FC4CEA040491F803C0DC
:1003A000BCF1280F05D100F1080C08FA0CF8C2F8CE
:1003B000148091F803C0BCF1480F07D100F1080C7C
:1003C0004FF0010808FA0CF8C2F81080401C082809
:1003D000CED35460BDE8F081416170470161704740
:1003E00000BFFEE710B502210A48FFF7F7FF012121
:1003F0000848FFF7F3FF00F037F802210548FFF740
:10040000EBFF00F031F801210248FFF7E5FF00F0B3
:100410002BF810BD0008014010B502210648FFF777
:10042000DBFF01210448FFF7D9FF00F01DF802218E
:100430000148FFF7D3FF10BD0008014010B50221AD
:100440000848FFF7CBFF00F00FF801210548FFF740
:10045000C5FF00F009F801210248FFF7BDFF00F0D9
:1004600003F810BD00080140032000BF011EA0F1E9
:100470000102D0B2FAD1704700BFFEE7704700001A
:1004800070B500240CE0002506E00020074901EBD0
:10049000C5010855681CC5B2802DF6DB601CC4B2CE
:1004A000082CF0DB00F004F970BD00008818002073
:1004B00010B504461CB90021A62000F098F9012CC3
:1004C00003D10021A72000F092F910BD10B5044619
:1004D0003CB90021C82000F08AF90021A12000F0D9
:1004E00086F9012C07D10021C02000F080F90021FD
:1004F000A02000F07CF910BDF0B514460B46CF17D4
:1005000001EB5777C7F3C702CF1701EB5777FF10FF
:10051000A1EBC707FEB20123B340DDB24CB1134BD0
:1005200003EBC0039B5C2B43104F07EBC007BB548E
:100530001AE00E4B03EBC0039B5CDB430B4F07EB56
:10054000C007BB54094B03EBC0039B5C2B43074F15
:1005500007EBC007BB54054B03EBC0039B5CDB43BD
:10056000024F07EBC007BB54F0BD00008818002005
:1005700008B50121042000F057F90320ADF8000070
:1005800014208DF8030003208DF8020069464748C7
:10059000FFF797FE03214548FFF720FF0420ADF841
:1005A000000010208DF8030003208DF8020069463A
:1005B0003E48FFF786FE04213C48FFF70FFF042169
:1005C0003A48FFF709FFC82000F0BAFA042137487B
:1005D000FFF704FF0021AE2000F009F900210846D2
:1005E00000F005F90021102000F001F90021402061
:1005F00000F0FDF80021812000F0F9F80021CF2063
:1006000000F0F5F80021A12000F0F1F80021C82049
:1006100000F0EDF80021A62000F0E9F80021A82064
:1006200000F0E5F800213F2000F0E1F80021D320A0
:1006300000F0DDF80021084600F0D9F80021D520AF
:1006400000F0D5F80021802000F0D1F80021D92059
:1006500000F0CDF80021F12000F0C9F80021DA20E7
:1006600000F0C5F80021122000F0C1F80021DB20C5
:1006700000F0BDF80021302000F0B9F80021202062
:1006800000F0B5F80021022000F0B1F800218D2023
:1006900000F0ADF80021142000F0A9F8FFF7F0FEFB
:1006A0000021AF2000F0A3F808BD000000080140C1
:1006B00070B500242BE004F1B001C8B2002100F0B5
:1006C00096F80021084600F092F80021102000F072
:1006D0008EF8FFF787FE782000F0B8F8FFF7AEFE3F
:1006E000402000F0B3F8FFF7A9FE002509E0094912
:1006F00001EBC501085D00F0A9F8FFF79FFE681C3B
:10070000C5B2802DF3DBFFF787FE601CC4B2082C56
:10071000D1DB70BD881800202DE9FF4F05460E463D
:1007200017461C46DDF838904FF0000A0095B34696
:100730002046E21704EB5272D2102146E31704EB75
:100740005373DB10A4EBC3030BB1012300E00023C0
:100750001A44D4B24FF0000845E0002003903BE07B
:100760000D9810F80A0002900AF101001FFA80FAB1
:10077000002001901DE0029800F0010028B14A46D7
:1007800031462846FFF7B8FE0AE0B9F1000F01D163
:10079000012000E00020024631462846FFF7ACFE6B
:1007A000029840100290701CC6B20198401CC0B262
:1007B000019001980828DEDB681CC5B20098281A51
:1007C000B84204D1009D0BF1080000F0FF0B5E461B
:1007D0000398401CC0B203900398B842C0DB08F1F4
:1007E000010000F0FF08A045B7DBBDE8FF8F70B542
:1007F00005460C46FFF7F6FD782000F027F8FFF7D6
:100800001DFE1CB1402000F021F802E0002000F0A5
:100810001DF8FFF713FE284600F018F8FFF70EFE4C
:10082000FFF7FAFD70BD704729B1064A926902438D
:10083000044B9A6104E0034A92698243014B9A6136
:1008400070470000001002407047000070B5044679
:1008500000251BE004F0800020B102210D48FFF7C5
:10086000BDFD03E002210B48FFF7B6FDFFF7FCFDDD
:1008700001210848FFF7B2FDFFF7F6FD0121054809
:10088000FFF7AAFD6006040E681CC5B2082DE1DB67
:1008900070BD00000008014010B500F001F810BD67
:1008A0000CB50020019000903348006840F480307F
:1008B0003149086000BF3048006800F40030009003
:1008C0000198401C0190009818B90198B0F5A06FEC
:1008D000F1D12948006800F4003010B101200090E7
:1008E00001E0002000900098012843D123480068CF
:1008F00040F01000214908600846006820F003001D
:1009000008600846006840F0020008601A48406825
:10091000194948600846406848600846406840F405
:10092000806048600846406820F47C1048600846B3
:10093000406840F4E81048600846006840F0807065
:10094000086000BF0C48006800F000700028F9D073
:100950000948406820F0030007494860084640689D
:1009600040F00200486000BF0348406800F00C00FF
:100970000828F9D10CBD0000001002400020024000
:10098000042808D14FF0E021096941F004014FF03B
:10099000E022116107E04FF0E021096921F0040134
:1009A0004FF0E022116170477047000010B5134806
:1009B000006840F00100114908600846406810498D
:1009C00008400E494860084600680E4908400B4937
:1009D00008600846006820F48020086008464068E7
:1009E00020F4FE0048604FF41F008860FFF754FFBA
:1009F0004FF000600449086010BD00000010024084
:100A00000000FFF8FFFFF6FE08ED00E010B540F231
:100A100025511D4800F03EF810B31B4800F064F863
:100A2000C4B21A48008800F40040C8B917480088CA
:100A300000F4804060B10A2C03D0002013490880E4
:100A400020E01248008840F400401049088019E076
:100A50000D2C06D10D48008840F480400B490880D9
:100A600010E00A480088C0F30D0009490C540748FB
:100A70000088401C0549088008460088C72801DD19
:100A80000020088010BD0000003801400800002050
:100A9000081D002070B50246002400230025002018
:100AA00040F66A16B14200D100BFC1F3421501F011
:100AB0001F03012606FA03F3012D02D19689334064
:100AC00006E0022D02D1168A334001E0968A3340B7
:100AD0000C12012606FA04F41688344013B10CB146
:100AE000012000E0002070BD01468888C0F30800A6
:100AF000704700BFFEE700BF7047000010B56FF001
:100B00000400FFF73DFF0A4800680A49B0FBF1F016
:100B1000094908700846007800EB4001C1EBC0109D
:100B20004FF6FF7101EAC0000449088010BD0000C3
:100B30000C00002000127A000000002002000020BB
:100B40000146114A12884A434FF0E0235A610022BD
:100B50009A611A46126942F001021A6100BF4FF011
:100B6000E022106900F001021AB100F48032002A7C
:100B7000F5D04FF0E022126922F001024FF0E0239D
:100B80001A6100229A617047020000201CB500BF64
:100B9000FFF7B4FFFFF7ECFC0020FFF789FC002013
:100BA000FFF794FC0BE00120054940238022CDE9AA
:100BB000001000210846FFF7AFFDFFF779FDF2E7CF
:100BC00008120020E40B0008000000208818000034
:100BD0006C010008A413000888180020A80B00006E
:100BE000C8010008D184A24A0410090102030406C6
:100BF000070809100A03050911FF118905C312E04E
:100C000012F072F8073D4428FF11AA44700B8301CB
:100C1000384482929274018328087C44FF017D7DD0
:100C20007D0449055C7D01FF8D990279A1890B0145
:100C30003669419949FA0101011D38083F3F030314
:100C4000F31311011E01F1116181312D816111F147
:100C5000393B4141072C01C1211EAB21C11439018F
:100C600039360738D33303033F3F23E0E06A7FA8D8
:100C70001A7FBF4C0618060A213640407F40401CB0
:100C80001F204001AB201F14113A600E6C300C0382
:100C90004601361C0707060178090404048444440D
:100CA0004484071C0484C405790E09110A791129AA
:100CB00040034107072610181412112E0F101010B0
:100CC0000F0F331F1026081012120D22186B0D1271
:100CD0000A5929590701605A8001013D20087F0304
:100CE0000C300C037F2538545458257C04047805B7
:100CF000223C40407C17FFAAAAAA28080A2CFF68B9
:100D00001E2649494932101D020408100F100A031B
:100D1000050911FF118905C312E012F072F8073DB1
:100D20004428FF11AA44700B8301384482929274C4
:100D300001831E7C44FF017D01990559BB9A010284
:100D4000818A010B013669419949FA010101204B61
:100D5000F808011135F818608035806018F82B20EC
:100D60002006312BE0101EAB10E014613937043E31
:100D70008868186A7FA71A7FBE4C0618060A1146B3
:100D800040407F40401C1F204001AB201F141162D7
:100D9000603A602F01441E40202020C0ED19072931
:100DA000EA2A4005115A600E891879295907014924
:100DB000260C0A0A090C360F0808080F2C080F0821
:100DC000151D0809090E0719181C09090918190A1F
:100DD0005929590701605A8001013D20087F030C01
:100DE000300C037F2538545458257C0404780522A0
:100DF0003C40407C17FFAAAAAA28080A2CFF681EBC
:100E00002649494932101D020408100F091CE2004E
:100E10002B53C0E0703018180C0C040606C2E2E236
:100E2000F33333131139FD3911333333F3E2E2C2B3
:100E30000606040C0C18183070E0C080953CFFFFCB
:100E4000C1781640C1C3C70706060C0C0CFF0C0C7A
:100E500008181838F8F0F040A80553C1FF7F1C1E91
:100E6000010303060EE2280A103030202163636379
:100E700046013A5F06190E000E3C21203030101852
:100E8000180C0E06030301180880C0E0E0E0F0F043
:100E900005180CE0C0C0E060607030303818011AEE
:100EA0001CEE19012A66010A133601391B3A2C2659
:100EB00029311E3830307060451AE04329421F1C2A
:100EC0000CECFCFCFC47031B0404180987CFFFFF54
:100ED0007C391B0BC6093BC7011400141081C3C326
:100EE000C3C7C6860E0C1C1C383870F0E0C080806A
:100EF000FE0C7FFFFFE31601482A0101890E3A0329
:100F000001980883C3E3FFFF7F0C170F4807077E94
:100F1000FEFCF0863A80012AC0019815E06060600E
:100F2000703030303818181C0C0C0E0607070303FD
:100F30009389853808070F1F3E78F0E0355901087E
:100F40000A16C8FEFEFEE60606040C01BE1C1C3C8A
:100F50007870331BC0FF011961C9F901271810C04F
:100F60006038080C06C2E23311F9113373E27905D7
:100F7000291830E080537FF7400BC387060CFF0C25
:100F80001818F0E0032A81FF1B01077100111E30C1
:100F9000616346465F464643632030180C0603886B
:100FA0001580E0E0F0E0E0C06070303818180C0CFC
:100FB0000C66666636011B6666131A1854D00D60FF
:100FC000E0E07038180CFCFC1C04040728C7FF790B
:100FD0001B0301900AC3C3C7060C1870E0C0042CA1
:100FE000FFFF804A016B4F03030383FF7F0B042540
:100FF00007FEFC9810808080C0C0C0606030301850
:101000001C0E0603B51D0F3F78E01B19011CFEFEE8
:1010100006F189014C1C38F0195DDCFFC3017CE14D
:101020001BF010012AFF054AF04C1A04012AFF05A3
:10103000320F18094040405F55555575041A5F0C32
:101040001911180C200F094989790909090F200F76
:10105000112FFE02424ACA4A03344202FE400EFFEA
:1010600040504C4340404F50505C40FF1BF88801BB
:101070002AFF0552F81B1F08012A7F10149F80F0D9
:101080003B8082016009E2A2928A8682808084404D
:10109000807F399C5B9008431208180F0444827FBC
:1010A00001808040432C102846813029B9180AD08D
:1010B00030FF30D0121C10100F1C080402E6197A01
:1010C00016010204081019C71E84E43C2724011AE3
:1010D000E40C11291E1AFFBD19C4496415FE225AD9
:1010E000862BFE920129BF111DFF040807C51F2092
:1010F000030C142241E1178040201806802D0718A8
:1011000020409E1201100B20702826212020243818
:10111000601A016A3B10123C3D9212120240212AD1
:101120003F935A3FC54BAA55022A1F013AE00139A5
:101130000B092E0C2AF8013A0701390B092E0C2A4B
:1011400081013A7E01390B092E0C09FDC0093FC00F
:101150005AFF0181E9100916186910093E4001FF84
:101160008112FC1AF8011F783838181808012E1857
:1011700018383878123318FC1B04FC01992C290EFE
:101180002B1C0C01290B29085B1C0C17C9254909CC
:10119000763CFCFCF0C01CC0F07C0F992871101547
:1011A00001E0FFFFCF0114282850F0A26747A6B046
:1011B0005058283C1487FFFF421F1AFF01A1990EC7
:1011C000A919290C7A1C01591A2580FFFF07200D47
:1011D000071F7FFEF8E080E0F83F0F0305113FFF97
:1011E000FFFE50191FC13FFFFEDCD8938226246DFD
:1011F000E92C26069390D8FEFF7FCF3E2808070FE4
:101200001F3F7C7870011D30381C3F01618A200B24
:101210001957990C690E192162218F030F3F1F077F
:10122000011C021120181401060917172F5331B899
:101230007C7FB8B1532F2F170B05AD411A3802131D
:101240000838172010201030101B08103C12382AC4
:1012500030051320304B18082113202019191230A3
:1012600019222D303008300D3936190311130818A2
:101270002D38200830042A50271A3009011B59A79D
:1012800001EC12F04AE0011C606020016B60600F0D
:1012900032F01B10F001992C290E2B703001290B14
:1012A00029085B703017C925690993F0C03AC0104E
:1012B000011110190780FFFF3F0751A0A040C0880F
:1012C0009C1C98C04060A0F1031FFFFF427F1AFFE3
:1012D00001A1990EA919290C7A7001691A14FCFF51
:1012E0001F1008031F7FFFF8E0802F80E0FC3F0FF6
:1012F00001290211F81B7F0716481370604C099BE7
:1013000092B5A5B29A194D4060F8FEFF3F29380802
:101310001F3F7FFFF0E0C0017AE05B2119B5C98073
:10132000E9A55580FEFF877808010F3FFF7E1F0764
:101330001C0310FC80501703041B275F5FBE4EC4C4
:10134000E0F1FFE0C44CBEBE5F2F170D031AE002B0
:10135000100A20E10181418141C1401B20403C1223
:10136000E02AC0051380C04B60202113808019192A
:1013700012C013C0402DC0C020C00D193639031152
:101380001320602DE08020C00419171C4080C00984
:1013900071DAE001E809E1E0E2E1E5E2E2E1180901
:0413A0004601E959C0
:0400000508000131BD
:00000001FF
